:1000000019C033C032C031C030C02FC02EC02DC087
:100010002CC02BC02AC029C028C027C026C025C09C
:10002000A1C023C022C021C020C01FC01EC01DC04F
:100030001CC01BC011241FBECFEFD2E0DEBFCDBF5E
:1000400011E0A0E0B1E0EEE8F5E002C005900D920D
:10005000A633B107D9F711E0A6E3B1E001C01D92C4
:10006000A734B107E1F7D8D091C2CACF88B18F6168
:1000700088B980914601863020F08BB1837F8BB99F
:100080000EC02091460181E090E002C0880F991FC8
:100090002A95E2F7982F909585B1892385B98091AB
:1000A0004601992701969C01287F3170821B930B92
:1000B0008093460180914601813039F4809100019E
:1000C0008F3F19F08091000110C0909146018091FE
:1000D0003901E82FFF2783E0EE0FFF1F8A95E1F734
:1000E000EF5FFE4FE90FF11D8081809588B9809107
:1000F0004601863011F45A9A08958091460187305E
:1001000011F45B9A08958091460121E030E002C02D
:10011000220F331F8A95E2F785B1822B85B90895A6
:10012000809138018F5F80933801809138018C3342
:10013000C1F41092380180913B018F5F80933B01A5
:1001400080913B018C3369F410923B0180913A011C
:100150008F5F80933A0180913A01883111F41092B7
:100160003A0108951F920F920FB60F9211242F9308
:100170003F934F935F936F937F938F939F93AF932F
:10018000BF93EF93FF9380913601909137010196D1
:100190009093370180933601809136019091370119
:1001A00080FF64DF80913C0190913D010196909326
:1001B0003D0180933C0180913C0190913D01815A29
:1001C000974029F4ADDF10923D0110923C01FF9160
:1001D000EF91BF91AF919F918F917F916F915F91BF
:1001E0004F913F912F910F900FBE0F901F90189538
:1001F00083E880937A0085E080937C0080917A0088
:10020000806480937A0080917A0086FDFCCF809193
:100210007800909179000895CFEFD2E0DEBFCDBF96
:10022000EE24FF2401E0E701670185B5826085BD0A
:1002300080916E00802B80936E0087B18F6187B9AB
:1002400084B18F6384B98AB18C618AB978948091C2
:100250003901882321F40894C11CD11C02C0CC248C
:10026000DD24802F9927009719F0019729F134C0D8
:100270008091380199278C179D0771F501E081ED78
:10028000C81687E0D80678F0B8D080FD02C084E1B7
:1002900001C085E080930001C0913601D091370103
:1002A000C053D84F19C010920001C0913601D091AF
:1002B0003701C853DF4F10C080913601909137014C
:1002C0008C179D0748F000E08FEF8093000195D0D8
:1002D0006EE170E0B5D0EC0117E08ADF9C0182E0AE
:1002E0002D30380718F02C5032400CC081E0243FEC
:1002F000380730F484EF91E0821B930B9C0102C01D
:1003000020E030E0E20EF31E88EE93E00197F1F773
:10031000115017FFE2CFC70123E0969587952A95E4
:10032000E1F76CE070E078D07B016630710510F089
:1003300065E070E06093390180E49CE90197F1F792
:1003400086CFA0E0B0E0E6EAF1E0CFC0EC01A88003
:10035000B980CA80DB80A114B104C104D10441F486
:1003600084E2A82E89EDB82E8BE5C82E87E0D82E22
:10037000C601B5012DE133EF41E050E093D07901A2
:100380008A01C601B5012DE133EF41E050E08AD08A
:10039000DC01CB01BC01CD0127EA31E440E050E0B3
:1003A00062D05B016C01C801B70124E13BE040E091
:1003B00050E059D0DC01CB01A81AB90ACA0ADB0AFD
:1003C000D7FE08C08FEF9FEFAFEFBFE7A80EB91EB3
:1003D000CA1EDB1EA882B982CA82DB828FEF9FE72A
:1003E000A0E0B0E0A822B922CA22DB22C501EAE0DF
:1003F000CDB7DEB796C0A5DF089581E391E0A1DF18
:100400000895AA27BB278093310190933201A093CE
:100410003301B09334010895AA1BBB1B51E107C0FF
:10042000AA1FBB1FA617B70710F0A61BB70B881F84
:10043000991F5A95A9F780959095BC01CD01089513
:1004400097FB092E07260AD077FD04D0E5DF06D0FA
:1004500000201AF4709561957F4F0895F6F79095F6
:1004600081959F4F0895629FD001739FF001829FF5
:10047000E00DF11D649FE00DF11D929FF00D839F33
:10048000F00D749FF00D659FF00D9927729FB00DD0
:10049000E11DF91F639FB00DE11DF91FBD01CF01E3
:1004A0001124089597FB092E05260ED057FD04D080
:1004B0004BD00AD0001C38F45095409530952195CA
:1004C0003F4F4F4F5F4F0895F6F790958095709589
:1004D00061957F4F8F4F9F4F08952F923F924F927C
:1004E0005F926F927F928F929F92AF92BF92CF92C4
:1004F000DF92EF92FF920F931F93CF93DF93CDB7CD
:10050000DEB7CA1BDB0B0FB6F894DEBF0FBECDBF44
:1005100009942A88398848885F846E847D848C8415
:100520009B84AA84B984C884DF80EE80FD800C811E
:100530001B81AA81B981CE0FD11D0FB6F894DEBF01
:100540000FBECDBFED010895A1E21A2EAA1BBB1B61
:10055000FD010DC0AA1FBB1FEE1FFF1FA217B3078F
:10056000E407F50720F0A21BB30BE40BF50B661FA5
:10057000771F881F991F1A9469F760957095809569
:0E05800090959B01AC01BD01CF010895FFCF06
:10058E00FF000A000E00000000000A000E0E000020
:10059E0000000A000E110E0000000A000E11110ECE
:1005AE0000000A000E1111110E001B000E11111188
:0605BE000E010000000028
:00000001FF
